{
  "_format": "hh-sol-artifact-1",
  "contractName": "BuyMeACoffee",
  "sourceName": "contracts/BuyMeACoffee.sol",
  "abi": [
    {
      "inputs": [],
      "stateMutability": "nonpayable",
      "type": "constructor"
    },
    {
      "anonymous": false,
      "inputs": [
        {
          "indexed": false,
          "internalType": "address",
          "name": "from",
          "type": "address"
        },
        {
          "indexed": false,
          "internalType": "uint256",
          "name": "timestamp",
          "type": "uint256"
        },
        {
          "indexed": false,
          "internalType": "string",
          "name": "name",
          "type": "string"
        },
        {
          "indexed": false,
          "internalType": "string",
          "name": "message",
          "type": "string"
        }
      ],
      "name": "NewMemo",
      "type": "event"
    },
    {
      "anonymous": false,
      "inputs": [
        {
          "indexed": true,
          "internalType": "address",
          "name": "previousOwner",
          "type": "address"
        },
        {
          "indexed": true,
          "internalType": "address",
          "name": "newOwner",
          "type": "address"
        }
      ],
      "name": "OwnershipTransferred",
      "type": "event"
    },
    {
      "inputs": [
        {
          "internalType": "string",
          "name": "_name",
          "type": "string"
        },
        {
          "internalType": "string",
          "name": "_message",
          "type": "string"
        }
      ],
      "name": "buyCoffee",
      "outputs": [],
      "stateMutability": "payable",
      "type": "function"
    },
    {
      "inputs": [
        {
          "internalType": "address payable",
          "name": "_withdraw",
          "type": "address"
        }
      ],
      "name": "changeWithdraw",
      "outputs": [],
      "stateMutability": "nonpayable",
      "type": "function"
    },
    {
      "inputs": [],
      "name": "getMemos",
      "outputs": [
        {
          "components": [
            {
              "internalType": "address",
              "name": "from",
              "type": "address"
            },
            {
              "internalType": "uint256",
              "name": "timestamp",
              "type": "uint256"
            },
            {
              "internalType": "string",
              "name": "name",
              "type": "string"
            },
            {
              "internalType": "string",
              "name": "message",
              "type": "string"
            }
          ],
          "internalType": "struct BuyMeACoffee.Memo[]",
          "name": "",
          "type": "tuple[]"
        }
      ],
      "stateMutability": "view",
      "type": "function"
    },
    {
      "inputs": [],
      "name": "getTips",
      "outputs": [
        {
          "internalType": "uint256",
          "name": "",
          "type": "uint256"
        }
      ],
      "stateMutability": "view",
      "type": "function"
    },
    {
      "inputs": [],
      "name": "owner",
      "outputs": [
        {
          "internalType": "address",
          "name": "",
          "type": "address"
        }
      ],
      "stateMutability": "view",
      "type": "function"
    },
    {
      "inputs": [],
      "name": "renounceOwnership",
      "outputs": [],
      "stateMutability": "nonpayable",
      "type": "function"
    },
    {
      "inputs": [
        {
          "internalType": "address",
          "name": "newOwner",
          "type": "address"
        }
      ],
      "name": "transferOwnership",
      "outputs": [],
      "stateMutability": "nonpayable",
      "type": "function"
    },
    {
      "inputs": [],
      "name": "withdrawTips",
      "outputs": [],
      "stateMutability": "nonpayable",
      "type": "function"
    }
  ],
  "bytecode": "0x608060405234801561001057600080fd5b5061002d61002261007360201b60201c565b61007b60201b60201c565b33600260006101000a81548173ffffffffffffffffffffffffffffffffffffffff021916908373ffffffffffffffffffffffffffffffffffffffff16021790555061013f565b600033905090565b60008060009054906101000a900473ffffffffffffffffffffffffffffffffffffffff169050816000806101000a81548173ffffffffffffffffffffffffffffffffffffffff021916908373ffffffffffffffffffffffffffffffffffffffff1602179055508173ffffffffffffffffffffffffffffffffffffffff168173ffffffffffffffffffffffffffffffffffffffff167f8be0079c531659141344cd1fd0a4f28419497f9722a3daafe3b4186f6b6457e060405160405180910390a35050565b6110188061014e6000396000f3fe60806040526004361061007b5760003560e01c806388e4a0731161004e57806388e4a073146100f55780638da5cb5b14610120578063dcf6d0d21461014b578063f2fde38b146101745761007b565b8063204206e1146100805780633aaa74b21461009c578063715018a6146100b3578063865c5172146100ca575b600080fd5b61009a600480360381019061009591906109ba565b61019d565b005b3480156100a857600080fd5b506100b1610310565b005b3480156100bf57600080fd5b506100c861037b565b005b3480156100d657600080fd5b506100df61038f565b6040516100ec9190610c40565b60405180910390f35b34801561010157600080fd5b5061010a610572565b6040516101179190610c71565b60405180910390f35b34801561012c57600080fd5b5061013561057a565b6040516101429190610c9b565b60405180910390f35b34801561015757600080fd5b50610172600480360381019061016d9190610cf4565b6105a3565b005b34801561018057600080fd5b5061019b60048036038101906101969190610d4d565b6105ef565b005b600034116101e0576040517f08c379a00000000000000000000000000000000000000000000000000000000081526004016101d790610dd7565b60405180910390fd5b600160405180608001604052803373ffffffffffffffffffffffffffffffffffffffff16815260200142815260200184815260200183815250908060018154018082558091505060019003906000526020600020906004020160009091909190915060008201518160000160006101000a81548173ffffffffffffffffffffffffffffffffffffffff021916908373ffffffffffffffffffffffffffffffffffffffff1602179055506020820151816001015560408201518160020190805190602001906102af9291906107bd565b5060608201518160030190805190602001906102cc9291906107bd565b5050507fc56140e05f516509ae28110e0f72e17558a7561630dad2647c3ae87d986e365c334284846040516103049493929190610e30565b60405180910390a15050565b600260009054906101000a900473ffffffffffffffffffffffffffffffffffffffff1673ffffffffffffffffffffffffffffffffffffffff166108fc479081150290604051600060405180830381858888f19350505050158015610378573d6000803e3d6000fd5b50565b610383610673565b61038d60006106f1565b565b60606001805480602002602001604051908101604052809291908181526020016000905b8282101561056957838290600052602060002090600402016040518060800160405290816000820160009054906101000a900473ffffffffffffffffffffffffffffffffffffffff1673ffffffffffffffffffffffffffffffffffffffff1673ffffffffffffffffffffffffffffffffffffffff1681526020016001820154815260200160028201805461044690610eb2565b80601f016020809104026020016040519081016040528092919081815260200182805461047290610eb2565b80156104bf5780601f10610494576101008083540402835291602001916104bf565b820191906000526020600020905b8154815290600101906020018083116104a257829003601f168201915b505050505081526020016003820180546104d890610eb2565b80601f016020809104026020016040519081016040528092919081815260200182805461050490610eb2565b80156105515780601f1061052657610100808354040283529160200191610551565b820191906000526020600020905b81548152906001019060200180831161053457829003601f168201915b505050505081525050815260200190600101906103b3565b50505050905090565b600047905090565b60008060009054906101000a900473ffffffffffffffffffffffffffffffffffffffff16905090565b6105ab610673565b80600260006101000a81548173ffffffffffffffffffffffffffffffffffffffff021916908373ffffffffffffffffffffffffffffffffffffffff16021790555050565b6105f7610673565b600073ffffffffffffffffffffffffffffffffffffffff168173ffffffffffffffffffffffffffffffffffffffff161415610667576040517f08c379a000000000000000000000000000000000000000000000000000000000815260040161065e90610f56565b60405180910390fd5b610670816106f1565b50565b61067b6107b5565b73ffffffffffffffffffffffffffffffffffffffff1661069961057a565b73ffffffffffffffffffffffffffffffffffffffff16146106ef576040517f08c379a00000000000000000000000000000000000000000000000000000000081526004016106e690610fc2565b60405180910390fd5b565b60008060009054906101000a900473ffffffffffffffffffffffffffffffffffffffff169050816000806101000a81548173ffffffffffffffffffffffffffffffffffffffff021916908373ffffffffffffffffffffffffffffffffffffffff1602179055508173ffffffffffffffffffffffffffffffffffffffff168173ffffffffffffffffffffffffffffffffffffffff167f8be0079c531659141344cd1fd0a4f28419497f9722a3daafe3b4186f6b6457e060405160405180910390a35050565b600033905090565b8280546107c990610eb2565b90600052602060002090601f0160209004810192826107eb5760008555610832565b82601f1061080457805160ff1916838001178555610832565b82800160010185558215610832579182015b82811115610831578251825591602001919060010190610816565b5b50905061083f9190610843565b5090565b5b8082111561085c576000816000905550600101610844565b5090565b6000604051905090565b600080fd5b600080fd5b600080fd5b600080fd5b6000601f19601f8301169050919050565b7f4e487b7100000000000000000000000000000000000000000000000000000000600052604160045260246000fd5b6108c78261087e565b810181811067ffffffffffffffff821117156108e6576108e561088f565b5b80604052505050565b60006108f9610860565b905061090582826108be565b919050565b600067ffffffffffffffff8211156109255761092461088f565b5b61092e8261087e565b9050602081019050919050565b82818337600083830152505050565b600061095d6109588461090a565b6108ef565b90508281526020810184848401111561097957610978610879565b5b61098484828561093b565b509392505050565b600082601f8301126109a1576109a0610874565b5b81356109b184826020860161094a565b91505092915050565b600080604083850312156109d1576109d061086a565b5b600083013567ffffffffffffffff8111156109ef576109ee61086f565b5b6109fb8582860161098c565b925050602083013567ffffffffffffffff811115610a1c57610a1b61086f565b5b610a288582860161098c565b9150509250929050565b600081519050919050565b600082825260208201905092915050565b6000819050602082019050919050565b600073ffffffffffffffffffffffffffffffffffffffff82169050919050565b6000610a8982610a5e565b9050919050565b610a9981610a7e565b82525050565b6000819050919050565b610ab281610a9f565b82525050565b600081519050919050565b600082825260208201905092915050565b60005b83811015610af2578082015181840152602081019050610ad7565b83811115610b01576000848401525b50505050565b6000610b1282610ab8565b610b1c8185610ac3565b9350610b2c818560208601610ad4565b610b358161087e565b840191505092915050565b6000608083016000830151610b586000860182610a90565b506020830151610b6b6020860182610aa9565b5060408301518482036040860152610b838282610b07565b91505060608301518482036060860152610b9d8282610b07565b9150508091505092915050565b6000610bb68383610b40565b905092915050565b6000602082019050919050565b6000610bd682610a32565b610be08185610a3d565b935083602082028501610bf285610a4e565b8060005b85811015610c2e5784840389528151610c0f8582610baa565b9450610c1a83610bbe565b925060208a01995050600181019050610bf6565b50829750879550505050505092915050565b60006020820190508181036000830152610c5a8184610bcb565b905092915050565b610c6b81610a9f565b82525050565b6000602082019050610c866000830184610c62565b92915050565b610c9581610a7e565b82525050565b6000602082019050610cb06000830184610c8c565b92915050565b6000610cc182610a5e565b9050919050565b610cd181610cb6565b8114610cdc57600080fd5b50565b600081359050610cee81610cc8565b92915050565b600060208284031215610d0a57610d0961086a565b5b6000610d1884828501610cdf565b91505092915050565b610d2a81610a7e565b8114610d3557600080fd5b50565b600081359050610d4781610d21565b92915050565b600060208284031215610d6357610d6261086a565b5b6000610d7184828501610d38565b91505092915050565b600082825260208201905092915050565b7f30204554483f3f3f000000000000000000000000000000000000000000000000600082015250565b6000610dc1600883610d7a565b9150610dcc82610d8b565b602082019050919050565b60006020820190508181036000830152610df081610db4565b9050919050565b6000610e0282610ab8565b610e0c8185610d7a565b9350610e1c818560208601610ad4565b610e258161087e565b840191505092915050565b6000608082019050610e456000830187610c8c565b610e526020830186610c62565b8181036040830152610e648185610df7565b90508181036060830152610e788184610df7565b905095945050505050565b7f4e487b7100000000000000000000000000000000000000000000000000000000600052602260045260246000fd5b60006002820490506001821680610eca57607f821691505b60208210811415610ede57610edd610e83565b5b50919050565b7f4f776e61626c653a206e6577206f776e657220697320746865207a65726f206160008201527f6464726573730000000000000000000000000000000000000000000000000000602082015250565b6000610f40602683610d7a565b9150610f4b82610ee4565b604082019050919050565b60006020820190508181036000830152610f6f81610f33565b9050919050565b7f4f776e61626c653a2063616c6c6572206973206e6f7420746865206f776e6572600082015250565b6000610fac602083610d7a565b9150610fb782610f76565b602082019050919050565b60006020820190508181036000830152610fdb81610f9f565b905091905056fea26469706673582212200c9799a52999ea9081d66ab106d25a070c0bb33ec6c6577f5a7e91c7f0c0de1964736f6c63430008090033",
  "linkReferences": {},
  "deployedLinkReferences": {}
}